{
  "contractName": "VendingMachine",
  "abi": [
    {
      "inputs": [],
      "stateMutability": "nonpayable",
      "type": "constructor"
    },
    {
      "inputs": [
        {
          "internalType": "address",
          "name": "",
          "type": "address"
        }
      ],
      "name": "donutBalances",
      "outputs": [
        {
          "internalType": "uint256",
          "name": "",
          "type": "uint256"
        }
      ],
      "stateMutability": "view",
      "type": "function",
      "constant": true
    },
    {
      "inputs": [],
      "name": "owner",
      "outputs": [
        {
          "internalType": "address",
          "name": "",
          "type": "address"
        }
      ],
      "stateMutability": "view",
      "type": "function",
      "constant": true
    },
    {
      "inputs": [],
      "name": "getVendingMachineBalance",
      "outputs": [
        {
          "internalType": "uint256",
          "name": "",
          "type": "uint256"
        }
      ],
      "stateMutability": "view",
      "type": "function",
      "constant": true
    },
    {
      "inputs": [
        {
          "internalType": "uint256",
          "name": "amount",
          "type": "uint256"
        }
      ],
      "name": "restock",
      "outputs": [],
      "stateMutability": "nonpayable",
      "type": "function"
    },
    {
      "inputs": [
        {
          "internalType": "uint256",
          "name": "amount",
          "type": "uint256"
        }
      ],
      "name": "purchase",
      "outputs": [],
      "stateMutability": "payable",
      "type": "function",
      "payable": true
    }
  ],
  "bytecode": "0x608060405234801561001057600080fd5b50336000806101000a81548173ffffffffffffffffffffffffffffffffffffffff021916908373ffffffffffffffffffffffffffffffffffffffff1602179055506064600160003073ffffffffffffffffffffffffffffffffffffffff1673ffffffffffffffffffffffffffffffffffffffff16815260200190815260200160002081905550610809806100a56000396000f3fe60806040526004361061004a5760003560e01c80638da5cb5b1461004f5780639a020d8a1461007a578063c21a702a146100b7578063e7644d34146100e0578063efef39a11461010b575b600080fd5b34801561005b57600080fd5b50610064610127565b6040516100719190610453565b60405180910390f35b34801561008657600080fd5b506100a1600480360381019061009c919061049f565b61014b565b6040516100ae91906104e5565b60405180910390f35b3480156100c357600080fd5b506100de60048036038101906100d9919061052c565b610163565b005b3480156100ec57600080fd5b506100f561024a565b60405161010291906104e5565b60405180910390f35b6101256004803603810190610120919061052c565b610291565b005b60008054906101000a900473ffffffffffffffffffffffffffffffffffffffff1681565b60016020528060005260406000206000915090505481565b60008054906101000a900473ffffffffffffffffffffffffffffffffffffffff1673ffffffffffffffffffffffffffffffffffffffff163373ffffffffffffffffffffffffffffffffffffffff16146101f1576040517f08c379a00000000000000000000000000000000000000000000000000000000081526004016101e8906105b6565b60405180910390fd5b80600160003073ffffffffffffffffffffffffffffffffffffffff1673ffffffffffffffffffffffffffffffffffffffff16815260200190815260200160002060008282546102409190610605565b9250508190555050565b6000600160003073ffffffffffffffffffffffffffffffffffffffff1673ffffffffffffffffffffffffffffffffffffffff16815260200190815260200160002054905090565b614e208161029f9190610639565b3410156102e1576040517f08c379a00000000000000000000000000000000000000000000000000000000081526004016102d8906106ed565b60405180910390fd5b80600160003073ffffffffffffffffffffffffffffffffffffffff1673ffffffffffffffffffffffffffffffffffffffff168152602001908152602001600020541015610363576040517f08c379a000000000000000000000000000000000000000000000000000000000815260040161035a9061077f565b60405180910390fd5b80600160003073ffffffffffffffffffffffffffffffffffffffff1673ffffffffffffffffffffffffffffffffffffffff16815260200190815260200160002060008282546103b2919061079f565b9250508190555080600160003373ffffffffffffffffffffffffffffffffffffffff1673ffffffffffffffffffffffffffffffffffffffff16815260200190815260200160002060008282546104089190610605565b9250508190555050565b600073ffffffffffffffffffffffffffffffffffffffff82169050919050565b600061043d82610412565b9050919050565b61044d81610432565b82525050565b60006020820190506104686000830184610444565b92915050565b600080fd5b61047c81610432565b811461048757600080fd5b50565b60008135905061049981610473565b92915050565b6000602082840312156104b5576104b461046e565b5b60006104c38482850161048a565b91505092915050565b6000819050919050565b6104df816104cc565b82525050565b60006020820190506104fa60008301846104d6565b92915050565b610509816104cc565b811461051457600080fd5b50565b60008135905061052681610500565b92915050565b6000602082840312156105425761054161046e565b5b600061055084828501610517565b91505092915050565b600082825260208201905092915050565b7f4f6e6c7920746865206f776e65722063616e20726573746f636b2e0000000000600082015250565b60006105a0601b83610559565b91506105ab8261056a565b602082019050919050565b600060208201905081810360008301526105cf81610593565b9050919050565b7f4e487b7100000000000000000000000000000000000000000000000000000000600052601160045260246000fd5b6000610610826104cc565b915061061b836104cc565b9250828201905080821115610633576106326105d6565b5b92915050565b6000610644826104cc565b915061064f836104cc565b925082820261065d816104cc565b91508282048414831517610674576106736105d6565b5b5092915050565b7f596f75206d75737420706179206174206c65617374203230303030207765692060008201527f70657220646f6e75740000000000000000000000000000000000000000000000602082015250565b60006106d7602983610559565b91506106e28261067b565b604082019050919050565b60006020820190508181036000830152610706816106ca565b9050919050565b7f4e6f7420656e6f75676820646f6e75747320696e2073746f636b20746f20636f60008201527f6d706c6574652074686973207075726368617365000000000000000000000000602082015250565b6000610769603483610559565b91506107748261070d565b604082019050919050565b600060208201905081810360008301526107988161075c565b9050919050565b60006107aa826104cc565b91506107b5836104cc565b92508282039050818111156107cd576107cc6105d6565b5b9291505056fea2646970667358221220f624b01245c825603c5884a733c867bfcf1234f917dacb23bdaabadc1c296bf964736f6c63430008110033",
  "immutableReferences": {},
  "source": "// SPDX-License-Identifier: MIT\r\npragma solidity ^0.8.11;\r\n\r\ncontract VendingMachine {\r\n\r\n    // state variables\r\n    address public owner;\r\n    mapping (address => uint) public donutBalances;\r\n\r\n    // set the owner as th address that deployed the contract\r\n    // set the initial vending machine balance to 100\r\n    constructor() {\r\n        owner = msg.sender;\r\n        donutBalances[address(this)] = 100;\r\n    }\r\n\r\n    function getVendingMachineBalance() public view returns (uint) {\r\n        return donutBalances[address(this)];\r\n    }\r\n\r\n    // Let the owner restock the vending machine\r\n    function restock(uint amount) public {\r\n        require(msg.sender == owner, \"Only the owner can restock.\");\r\n        donutBalances[address(this)] += amount;\r\n    }\r\n\r\n    // Purchase donuts from the vending machine\r\n    function purchase(uint amount) public payable {\r\n        require(msg.value >= amount * 20000 wei, \"You must pay at least 20000 wei per donut\");\r\n        require(donutBalances[address(this)] >= amount, \"Not enough donuts in stock to complete this purchase\");\r\n        donutBalances[address(this)] -= amount;\r\n        donutBalances[msg.sender] += amount;\r\n    }\r\n}",
  "sourcePath": "D:\\DEV\\web3front\\serv\\contracts\\VendingMachine.sol",
  "compiler": {
    "name": "solc",
    "version": "0.8.17+commit.8df45f5f.Emscripten.clang"
  },
  "schemaVersion": "3.4.11",
  "updatedAt": "2023-01-18T13:01:40.338Z",
  "networkType": "ethereum",
  "devdoc": {
    "kind": "dev",
    "methods": {},
    "version": 1
  },
  "userdoc": {
    "kind": "user",
    "methods": {},
    "version": 1
  }
}